:100000000C9460000C9488000C9488000C94880078
:100010000C9488000C9488000C9488000C94880040
:100020000C9488000C9488000C9488000C94880030
:100030000C9488000C9488000C9488000C94880020
:100040000C94FA080C9488000C948A0A0C94BD0A4B
:100050000C9488000C9488000C9488000C94880000
:100060000C948C0E0C948800000000070002010024
:100070000003040600000000000000000102040864
:100080001020408001020408102001020408102002
:10009000040404040404040402020202020203032E
:1000A0000303030300000000250028002B000000CC
:1000B0000000240027002A00BC00CF0BA90DC400BB
:1000C00011241FBECFEFD8E0DEBFCDBF12E0A0E00D
:1000D000B1E0EEECF5E202C005900D92A638B10752
:1000E000D9F714E0A6E8B2E001C01D92A23CB10726
:1000F000E1F710E0CEEBD0E004C02297FE010E94B1
:10010000D612C83BD107C9F70E948A000C94BC0FD5
:100110000C94000080914603909147038430910530
:1001200099F01CF4009741F0F9CF8530910599F0D2
:100130008630910599F718C040E066E872E08EEBD2
:1001400092E00E949504E6CF66E872E08EEB92E0C2
:100150000E94D304DFCF8EEB92E00E94CD04109278
:10016000470310924603D6CF8EEB92E00E94D00454
:100170008FEF9FEF0E94BC0F8EEB92E00E94F7057D
:1001800086E892E00C94130686E892E00C947A06D6
:100190008FEF9FEF08958FEF9FEF08958FEF9FEF01
:1001A00008958FEF9FEF08958FEF9FEF08958FEFE2
:1001B0009FEF08958FEF9FEF0895FC0182E691E095
:1001C000918380831382128280E487830895FB01E8
:1001D000218130E02150310980E002C09191890FE6
:1001E000AF01461B570B42175307C4F30895CF9333
:1001F000DF93EB010E94E7009981C90FD11D219780
:1002000091E02881821390E0892FDF91CF910895AA
:100210000F931F93CF93DF93FA014FEF4083422F49
:100220004A5F4183DB0112964C91129742831396E9
:100230004C9143830F3F110509F010F4048302C071
:1002400043E04483E9012596CE0FDF1FBF010E94E2
:10025000E7008883DF91CF911F910F9108950F934D
:100260001F93890120E030E00E9408011F910F9147
:100270000895AF92BF92CF92DF92EF92FF920F93C9
:100280001F93CF93DF93A22F202FEA2FF32FEA01A2
:100290002596DF01C02ED12C02C03D9139935D011E
:1002A000AE1ABF0AAC14BD04C4F3870130E00E944B
:1002B0000801DF91CF911F910F91FF90EF90DF9098
:1002C000CF90BF90AF9008952F923F924F925F9240
:1002D0006F927F928F929F92AF92BF92CF92DF9256
:1002E000EF92FF920F931F93CF93DF9300D000D034
:1002F000CDB7DEB72C014B013A01F901DB011496B1
:100300009C91149780E015962C91822B8134910555
:1003100009F414C1C0F58A30910509F4DAC0C8F4B3
:100320008530910509F49AC050F48330910509F4A1
:1003300070C008F082C0892B09F414C1D3C2883080
:10034000910509F4BAC008F0BEC0069709F0CAC208
:1003500094C08E30910509F4D4C038F48C309105E6
:1003600009F4C3C008F0C7C0BAC08031910509F4D0
:10037000D4C008F4CCC08131910509F4BBC2849784
:1003800009F0B0C2D0C0813E910509F49EC1F8F4D5
:10039000823C910509F446C158F4803C910509F46A
:1003A000F9C008F00EC18136910509F09BC2DDC08D
:1003B000843C910509F466C108F44CC1853C910563
:1003C00009F475C1803E910509F08CC277C1811591
:1003D000B1E09B0709F4E9C158F4833E910509F4A3
:1003E000A7C108F489C1843E910509F07BC2C9C147
:1003F0008230A1E09A0709F4F5C108F4E3C1833023
:1004000021E0920709F421C28730914009F06AC2C5
:1004100030C28281DA0115968C93159783811696E6
:100420008C9300E010E022E030E0A301B401C201AF
:100430000E940801E12CF12C60C28781DA01159637
:100440008C931597808516968C93169781851796B1
:100450008C9300E010E023E030E0E7CF84A1DA01E4
:1004600015968C93159783A116968C93169782A157
:1004700017968C93179781A186C0DB0118963C9143
:10048000189720E019968C91282B442737FD40952A
:10049000542F19821A821B821C82A081B181589626
:1004A000ED90FC9059978E010F5F1F4FD201169669
:1004B0006C91CF01F701099570C123853485E12C3A
:1004C000F12C028535C026853785E12CF12C058578
:1004D0002FC026893789E12CF12C058929C0218D6F
:1004E000328DE12CF12C008D23C0248D358DE12C33
:1004F000F12C038D1DC0278D30A1E12CF12C068D30
:1005000017C026A137A1E12CF12C05A111C021A50E
:1005100032A5E12CF12C00A50BC024A535A5E12CBA
:10052000F12C03A505C025813681E12CF12C048135
:10053000A301B401C2010E943901DFC1DB0116969B
:100540006C91A081B181262F30E0295F3F4F280DAB
:10055000391DA401495F5F4F0D90BC91A02DCF01C3
:10056000FD01099520E030E0BFC18489DA011596CC
:100570008C931597838916968C9316978289179674
:100580008C931797818918968C9300E010E024E0F3
:1005900030E04BCFDB0119963C91199720E01A9679
:1005A0008C91282B442737FD4095542F19821A82AD
:1005B0001B821C82A081B1815696ED90FC905797CA
:1005C00016C0DB0119963C91199720E01A968C9180
:1005D000282B442737FD4095542F19821A821B82FD
:1005E0001C82A081B1815896ED90FC9059978E01A4
:1005F0000F5F1F4FD40116966C91CF01F70109953B
:100600007C0189819A812B813C81D30115963C9391
:10061000159716962C93169717969C9317971896DE
:100620008C9323C1A081B1815A962D913C915B9707
:10063000AE014F5F5F4FDB0116966C91CF01F90160
:1006400009957C018981D30115968C93870121E05E
:1006500030E042C1A081B1819A012B5F3F4F5C968F
:10066000ED90FC905D978E010F5F1F4FDB01179699
:100670004C91179716966C91CF01F70109957C0163
:1006800029817CC0808191819B01295F3F4FDB01E3
:1006900011964C914850DC015E96ED90FC905F976E
:1006A000DB0116966C91CF01F701099576C0A08108
:1006B000B18190962D913C91919769C0A081B181B3
:1006C0001C962D913C911D9762C0DB0119963C91BF
:1006D000199720E01A968C91282B442737FD4095D6
:1006E000542F19821A821B821C82A081B1811E960E
:1006F000ED90FC901F977BCF208131817B01B9E089
:10070000EB0EF11CDB0111960C910A50D9015096A9
:10071000CD90DC905197DB0118962C911897179685
:100720004C91179716966C91CF01F601099535C03B
:10073000208131816A0185E0C80ED11CDB01199648
:10074000FC901997E12C1A968C91E82AD9015296BF
:10075000AD90BC905397DB0118960C9118971B969F
:100760002C911B9717964C91179716966C91CF0169
:10077000F50109957C01D40118962C91870130E090
:10078000ABC0A081B18154962D913C915597D40175
:1007900016966C91CF01F90109957C019C01A3018A
:1007A000B401C2010E942F01A8C0A081B18112969C
:1007B0002D913C911397DB0116966C91CF01F901B5
:1007C0000995D0CEA081B18114962D913C911597B9
:1007D000DB0117964C91179716966C91CF01F90192
:1007E0000995C0CEDB0119963C91199720E01A9625
:1007F0008C91282B442737FD4095542F19821A825B
:100800001B821C82A081B1811896ED90FC901997F3
:100810008E010F5F1F4FDB0116966C91CF01F70120
:1008200009957C0189819A812B813C81D3011596A0
:100830003C93159716962C93169717969C9317979B
:1008400018968C9300E010E011C0A081B18116963B
:100850002D913C911797DB0117964C91179716969F
:100860006C91CF01F90109957C01870124E030E00A
:1008700033C0DB0117964C91E080F1805301B5E065
:10088000AB0EB11C6B012AE0C20ED11CDB0111962C
:100890008C9190E00B97642F70E00E946712262FD6
:1008A000D7011A962D903C901B97D4011996EC9085
:1008B000199718960C91189716966C91CF01F10123
:1008C00009957C01D40117962C91179718968C9155
:1008D000289F900111248701A301B401C2010E9445
:1008E00008010BC021E030E0A301B401C2010E9465
:1008F0002F01A0CD84E0E82EF12CC7010F900F90BE
:100900000F900F90DF91CF911F910F91FF90EF907B
:10091000DF90CF90BF90AF909F908F907F906F901F
:100920005F904F903F902F900895EF92FF920F931A
:100930001F93CF93DF9300D000D0CDB7DEB77C01FB
:10094000CB01642FD70116964C9319821A821B8211
:100950001C82F701E657FF4F4083DC01ED91FC91CB
:100960000688F789E02D8E010F5F1F4F20E835E2E2
:1009700040E050E00995F701E857FF4F84E090E030
:10098000918380830F900F900F900F90DF91CF9104
:100990001F910F91FF90EF9008958FEF9FEF0895B3
:1009A0008FEF9FEF08954F925F926F927F928F9299
:1009B0009F92AF92BF92CF92DF92EF92FF920F93EE
:1009C0001F93CF93DF9300D0CDB7DEB76C017B01CF
:1009D0001A82DB01ED91FC913E01B2E06B0E711CBD
:1009E0004C018AE8880E911C028CF38DE02DA30146
:1009F000D4016C91C70109958A81823008F4E1C065
:100A000019825601B8E0AB0EB11CD701ED91FC91F3
:100A1000048CF58DE02D8E010F5F1F4F950142E094
:100A2000D4016C91C7010995F60181851F928F93BE
:100A300080851F928F9380E791E09F938F930E9410
:100A4000BF0F0F900F900F900F900F900F90D60147
:100A500018968C91D701ED91FC91028CF38DE02DCD
:100A6000A301D4016C918F3F09F09AC0C701099589
:100A70002A8130E0F601818590E002972817390736
:100A80000CF457C0D701ED91FC919601265F3F4FC2
:100A9000D60119964C9142504601BAE88B0E911C32
:100AA000048CF58DE02D8E010F5F1F4FD4016C91EA
:100AB000C7010995B501C6010E94F70081114CC01C
:100AC00064C0D701ED91FC91028CF38DE02D452D92
:100AD000542DD4016C91C70109958A811F928F937F
:100AE0007F926F920E94BF0F015011090F900F90DB
:100AF0000F900F9031F5D701ED91FC91028CF38DA1
:100B0000E02D452D542DD4016C91C7010995D701D5
:100B1000ED91FC91048CF58DE02D8E010F5F1F4F40
:100B200095014A81D4016C91C70109952FEF3FEFE0
:100B30004AC005E610E0562C472C84E8682E81E078
:100B4000782E2A8130E0F601818590E002972817FF
:100B500039070CF4B6CF96CF8601085B1F4F97017B
:100B6000A801B501C6010E946401D701ED91FC9175
:100B7000D601A75BBF4F068CF78DE02D98014C91F5
:100B8000D4016C91C70109951CC0D701ED91FC916E
:100B9000028CF38DE02DAE014E5F5F4FD4016C915E
:100BA000C7010995D701ED91FC91048CF58DE02DDD
:100BB0008E010F5F1F4F95014A81D4016C91C701CF
:100BC000099520E030E0C9010F900F90DF91CF919F
:100BD0001F910F91FF90EF90DF90CF90BF90AF905B
:100BE0009F908F907F906F905F904F900895CF93DC
:100BF000DF93EC010E94DD0084E991E09983888312
:100C0000FE01E857FF4F118210821D821C82DF9186
:100C1000CF910895FC018AEA91E0918380838EEF61
:100C2000828313820895CF93DF93EC010E948006A4
:100C300087EF91E0998388831B828CE08C8387EE19
:100C400091E09E838D8321E02F8382E0888719863F
:100C50008EE08A8783ED91E09C878B8736E03D8725
:100C600081EE91E09F878E878AE0888B45E050E097
:100C700060E070E0498B5A8B6B8B7C8B1D8A1F8ADE
:100C80001E8A388F8DEC91E09A8F898F1B8E1D8E76
:100C90001C8E2E8F89E493E098A38F8F40E052EC56
:100CA00061E070E049A35AA36BA37CA38DE08EA7FB
:100CB00080E091E098AB8FA72DA38BE493E09FA3F6
:100CC0008EA38AE493E09FAB8EAB28A78CEC91E0D7
:100CD0009AA789A787E089AB82E491E09BAB8AABB6
:100CE00084E391E09DAB8CAB1BA61DA61CA6DF91F7
:100CF000CF91089527EF31E0FC01318320830895DF
:100D0000CF93DF93EC010E94E9088DE192E0998393
:100D1000888381E08A83DF91CF91089580E090E01D
:100D2000089581E090E0089585E593E00E94780BB6
:100D300080E090E00895EF92FF920F931F93CF937E
:100D4000DF9300D000D01F92CDB7DEB77C0185E5E0
:100D500093E02A833B834C835D8369830E94780BF5
:100D6000D701ED91FC910688F789E02D2A813B811E
:100D70004C815D816981C70109950F900F900F909B
:100D80000F900F90DF91CF911F910F91FF90EF90F7
:100D90000895CF93C42F50E0B90185E593E00E94F8
:100DA000200CC81719F024E830E002C020E030E041
:100DB000C901CF9108950F931F93CF93C42F50E093
:100DC000B90185E593E00E94780CF80180838C17C7
:100DD00019F023E830E002C020E030E0C901CF91F3
:100DE0001F910F910895CF93DF93EA0185E593E07A
:100DF0000E94EF09888380E090E0DF91CF91089511
:100E0000EF92FF920F931F93CF93DF93EC01EEA429
:100E1000F12CE0E0F0E060E070E014C0AFA5B8A90C
:100E2000AE0FBF1F8D919D910D90BC91A02D34965A
:100E3000281739074A075B0718F46150710905C084
:100E40006F5F7F4F6E157F054CF37B01EE0CFF1C2F
:100E5000EE0CFF1CEFA5F8A9EE0DFF1D408151819E
:100E60006281738185E593E00E94F80AEFA5F8A9F5
:100E7000EE0DFF1D80819181A281B381F8018083F5
:100E80009183A283B38380E090E0DF91CF911F91A3
:100E90000F91FF90EF900895DC01D696ED91FC91B3
:100EA000D797E60FF11D8081882319F08F5F80832B
:100EB00004C08CEF93E00E94730D80E090E00895F1
:100EC000AF92BF92CF92DF92EF92FF920F931F9358
:100ED000CF93DF937901EA0100E010E0A62EB12C58
:100EE0001FC06E0161E089910E948009F80193E0C2
:100EF000F595E7959A95E1F7EE0DFF1D608170E09D
:100F0000C8018770992702C0759567958A95E2F7A1
:100F100061707727F60180810E94B8090F5F1F4F2B
:100F20000A151B05F4F280E090E0DF91CF911F914C
:100F30000F91FF90EF90DF90CF90BF90AF9008950A
:100F40006F927F928F929F92AF92BF92CF92DF92D9
:100F5000EF92FF920F931F93CF93DF93F42EC22F44
:100F60001E2D61E0802F0E948009117061E06127D1
:100F7000802F0E94B809E12C612C712CD0E08F2CBD
:100F8000912C20C08E2D8E0F90E09501280F391FD7
:100F90008C0D9D1DDC018C918EBD0DB407FEFDCF27
:100FA0008EB5D9018C93319602C0E0E0F0E0E815EF
:100FB000F90544F3612F802F0E94B809BFEF6B1A27
:100FC0007B0AEF0C6C167D0684F380E090E0DF91E5
:100FD000CF911F910F91FF90EF90DF90CF90BF9036
:100FE000AF909F908F907F906F900895CF92DF92F7
:100FF000EF92FF920F931F93CF93DF9300D000D017
:10100000CDB7DEB76C01E12CF12C00E010E01FC081
:10101000D601D296ED91FC91D397EE0DFF1D808104
:101020009181A281B381E4E0EE0EF11C281739070B
:101030004A075B0798F029833A834B835C830E94BD
:10104000C90C0F5F1F4F5C814B813A812981D6010A
:10105000D1968C9190E008171907D4F280E090E0C7
:101060000F900F900F900F90DF91CF911F910F91E4
:10107000FF90EF90DF90CF900895842F0E94C40CD2
:1010800080E090E00895842F0E94BB0C80E090E007
:1010900008950E949C0C80E090E008954F925F922A
:1010A0006F927F928F929F92AF92BF92CF92DF9278
:1010B000EF92FF920F931F93CF93DF93642F211131
:1010C00007C021E0402F8CEF93E00E947D0D0BC004
:1010D0002130C1F520E030E0402F50E070E08CEF8F
:1010E00093E00E948A0D0E9444094B015C0110E0CC
:1010F0002701612C712C0BC00E94440968197909E1
:101100008A099B094616570668067906C0F08CEFD7
:1011100093E00E94D70C8017910774F35601E60103
:1011200005C08CEF93E00E94E00C8993CE018A19F0
:101130009B0980179107ACF320E030E005C023E85D
:1011400030E002C021E830E0C901DF91CF911F916A
:101150000F91FF90EF90DF90CF90BF90AF909F9056
:101160008F907F906F905F904F900895EF92FF92D5
:101170000F93CF93DF931F92CDB7DEB7642F8CEF21
:1011800093E029830E948C0D402F50E0B7018CEF33
:1011900093E00E94050D2981211102C061E003C086
:1011A000213041F460E08CEF93E00E94960D20E046
:1011B00030E007C061E08CEF93E00E94960D21E8DB
:1011C00030E0C9010F90DF91CF910F91FF90EF9028
:1011D0000895CF93DF93EC010E940A0683E492E026
:1011E0009983888381E08F8382E088871986DF91E5
:1011F000CF9108951F920F920FB60F9211242F9343
:101200003F938F939F93AF93BF9380914C039091A3
:101210004D03A0914E03B0914F0330915403232FFF
:101220002D5F2D3720F40196A11DB11D05C0232F80
:101230002A570296A11DB11D2093540380934C039D
:1012400090934D03A0934E03B0934F0380915003AE
:1012500090915103A0915203B09153030196A11DA7
:10126000B11D8093500390935103A0935203B09308
:101270005303BF91AF919F918F913F912F910F9009
:101280000FBE0F901F9018950F931F938FB7F89470
:1012900000914C0310914D0320914E0330914F0368
:1012A0008FBFB801C9011F910F910895833069F074
:1012B00028F48130A1F0823011F514C08630B1F0ED
:1012C0008730C1F08430D9F404C0809180008F77DA
:1012D00003C0809180008F7D80938000089584B545
:1012E0008F7702C084B58F7D84BD08958091B00052
:1012F0008F7703C08091B0008F7D8093B0000895F8
:10130000CF93DF9390E0FC01E458FF4F4491FC0140
:10131000E057FF4F8491882341F190E0880F991F97
:10132000FC01E255FF4F25913491D9018C559F4F17
:10133000FC0185919491C82FD92F9FB7F8948C9177
:10134000611106C0409584238C938881842308C052
:10135000623041F4242F209582238C938881842B42
:10136000888302C0842B8C939FBFDF91CF91089517
:101370000F931F93CF93DF931F92CDB7DEB7282F24
:1013800030E0F901E859FF4F8491F901E458FF4F2B
:101390001491F901E057FF4F04910023D1F0882305
:1013A00021F069830E9456096981E02FF0E0EE0F79
:1013B000FF1FEC55FF4F85919491DC019FB7F89486
:1013C0008C91611103C01095812301C0812B8C93F6
:1013D0009FBF0F90DF91CF911F910F910895FC0156
:1013E00084859585FC01E05CFF4F20813181FC0103
:1013F000EE5BFF4F80819181281B390B2F733327C0
:10140000C9010895FC0184859585FC01E05CFF4FCE
:1014100040815181FC01EE5BFF4F208131814217F9
:10142000530741F00190F081E02DE80FF91F208172
:1014300030E002C02FEF3FEFC9010895FC01848521
:101440009585FC01E05CFF4F40815181FC01EE5B22
:10145000FF4F208131814217530781F0A081B18174
:10146000A80FB91F8C91208131812F5F3F4F2F73BF
:10147000332731832083282F30E002C02FEF3FEF46
:10148000C9010895FC0186859785FC01E05CFF4F4A
:10149000DC01AE5BBF4F408151812D913C91119792
:1014A00042175307C1F70895CF93DF93FC01868558
:1014B0009785DC01A05CBF4F2D913C9111972F5F68
:1014C0003F4F2F733327EC01CE5BDF4F48815981AB
:1014D00024173507D9F30D90BC91A02DA80FB91F83
:1014E0006C93A685B785A05CBF4F11963C932E9355
:1014F000A689B7892C9181E090E0058C02C0880F05
:10150000991F0A94E2F7282B2C9381E090E0DF9159
:10151000CF9108951F920F920FB60F9211242F931F
:101520003F934F938F939F93EF93FF934091C60008
:101530008091F8039091F90301968F739927209178
:10154000FA033091FB038217930759F0E091F803F7
:10155000F091F903E854FC4F40839093F903809392
:10156000F803FF91EF919F918F914F913F912F91B0
:101570000F900FBE0F901F9018951F920F920FB6ED
:101580000F9211242F933F938F939F93EF93FF9389
:101590002091B4033091B5038091B6039091B703C5
:1015A0002817390731F48091C1008F7D8093C100E5
:1015B00014C0E091B603F091B703EC58FC4F2081C2
:1015C0008091B6039091B70301968F7399279093FA
:1015D000B7038093B6032093C600FF91EF919F91CC
:1015E0008F913F912F910F900FBE0F901F901895E4
:1015F000CF92DF92EF92FF92CF93DF93EC016A01DB
:101600007B01411581EE580761057105F9F0EC8900
:10161000FD8981E090E00E8C02C0880F991F0A942A
:10162000E2F7808360E079E08DE390E0A701960126
:101630000E947B1221503109410951095695479565
:1016400037952795211580E1380798F0EC89FD89B9
:10165000108260E874E88EE190E0A70196010E9494
:101660007B1221503109410951095695479537950B
:101670002795E889F9893083EA89FB892083EE89F7
:10168000FF89408181E090E09C010A8C02C0220F1A
:10169000331F0A94E2F7422B4083EE89FF89408191
:1016A0009C010B8C02C0220F331F0A94E2F7422BDD
:1016B0004083EE89FF8940819C010C8C02C0220F7F
:1016C000331F0A94E2F7422B4083EE89FF89208181
:1016D0000D8C02C0880F991F0A94E2F7809582232F
:1016E0008083DF91CF91FF90EF90DF90CF900895AE
:1016F000CF93DF93FC0186859785DC01A05CBF4F0B
:10170000EC01CE5BDF4F4D915C91119728813981BF
:1017100042175307C1F7A689B7894C9181E090E041
:101720009C01028C02C0220F331F0A94E2F720951D
:1017300024232C93A689B7894C919C01038C02C069
:10174000220F331F0A94E2F7209524232C93A689B5
:10175000B7894C919C01048C02C0220F331F0A945C
:10176000E2F7209524232C93A689B7892C91058C28
:1017700002C0880F991F0A94E2F7809582238C9308
:1017800084859585FC01EE5BFF4F20813181FC0152
:10179000E05CFF4F31832083DF91CF910895109259
:1017A00058031092570388EE93E0A0E0B0E08093D6
:1017B000590390935A03A0935B03B0935C0389E6AB
:1017C00092E0909356038093550388EB93E09093B7
:1017D00062038093610384E793E0909364038093B2
:1017E000630385EC90E0909366038093650384EC3B
:1017F00090E0909368038093670380EC90E090936F
:101800006A038093690381EC90E090936C0380936A
:101810006B0386EC90E090936E0380936D0384E0FD
:1018200080936F0383E08093700387E0809371035C
:1018300085E08093720381E0809373030895089597
:10184000CF92DF92EF92FF920F931F93CF93DF938C
:101850006C01EB017A01E60EF71E00E010E00BC010
:101860006991D601ED91FC910190F081E02DC601C6
:101870000995080F191FCE15DF0591F7C801DF91F3
:10188000CF911F910F91FF90EF90DF90CF9008952F
:101890000F931F93CF93DF93EC010E944409688755
:1018A00079878A879B87E881F9810680F781E02D17
:1018B000CE0109959C0197FF15C00E944409088537
:1018C00019852A853B85601B710B820B930B0C815C
:1018D0001D812E813F81601771078207930718F3DE
:1018E0002FEF3FEFC901DF91CF911F910F91089525
:1018F000CF92DF92EF92FF920F931F93CF93DF93DC
:101900007C018B016A01C0E0D0E009C0C7010E94E0
:10191000480C97FD07C0F80181938F012196CC15E3
:10192000DD05A1F7CE01DF91CF911F910F91FF90BF
:10193000EF90DF90CF90089561E08DE00E948009E4
:1019400061E08BE00E94800961E08AE00E948009EA
:1019500060E08DE00E94B80960E08BE00E94B80969
:1019600061E08AE00E94B8098CB580618CBD8CB5BD
:1019700080648CBD0895811103C08CB5806202C063
:101980008CB58F7D8CBD08959CB5937F982B9CBDA5
:1019900008952CB5982F93702C7F922B9CBD9DB5EC
:1019A00082FB882780F99E7F982B9DBD089520910A
:1019B0002C0430E080912D04281B3109C9010895C1
:1019C00080912D0490912C04891750F4E82FF0E0B9
:1019D000E25DFB4F208130E08F5F80932D0402C0D9
:1019E0002FEF3FEFC9010895E0912D0480912C0461
:1019F000E81730F4F0E0E25DFB4F208130E002C0F8
:101A00002FEF3FEFC90108950895CF92DF92EF9233
:101A1000FF920F931F93CF93DF937C01CB018A0139
:101A200020910804222391F0EB016B01C40ED51E16
:101A300009C06991D701ED91FC910190F081E02DF1
:101A4000C7010995CC15DD05A1F703C0642F0E94DD
:101A5000630EC801DF91CF911F910F91FF90EF901E
:101A6000DF90CF900895CF93DF931F92CDB7DEB76D
:101A70006983209108042223D1F0209109042032A7
:101A800040F021E030E0FC013383228320E030E0AD
:101A900015C080910A04E82FF0E0E55FFB4F9981C3
:101AA00090838F5F80930A048093090405C061E0EE
:101AB000CE0101960E94630E21E030E0C9010F9033
:101AC000DF91CF910895FC011382128248EE53E01A
:101AD00060E070E0448355836683778389E792E012
:101AE00091838083089510922D0410922C041092FB
:101AF0000A04109209040C94AD0D862F413208F0AF
:101B000040E26EE274E00E94CB0D10922D048093AF
:101B10002C0408950C947D0D81E08093080460935B
:101B20002B0410920A041092090408950F93062FB3
:101B300021E0409109046BE074E080912B040E9445
:101B4000100E10920A0410920904109208040F91CA
:101B500008958CEF93E00C94630D1092570481E08C
:101B6000809355041092540461E082E10E94B80908
:101B700061E083E10E94B809E9EBF0E080818E7FAB
:101B8000808380818D7F808388E48093B80085E4A2
:101B90008093BC000895413208F03FC090915704F3
:101BA0009111FCCF91E090935704209355042FEFAF
:101BB00020934E0410925304242F2150209352045A
:101BC0009093560490915604880F892B8093560465
:101BD00080915404813041F4109254048091560451
:101BE0008093BB0085EC01C085EE8093BC008091A2
:101BF00057048130E1F380915304841710F440912D
:101C0000530428E534E0FB01D90102C08D91819392
:101C10008A2F821B8417D0F301C040E0842F0895DF
:101C20000F93413208F046C0909157049111FCCFB8
:101C300092E090935704009355049FEF90934E04C5
:101C40001092530440935204FB0168E574E0DB01F9
:101C500002C091919D939A2F961B9417D0F31092E6
:101C6000560490915604880F892B809356048091D6
:101C70005404813041F410925404809156048093AE
:101C8000BB0085EC01C085EE8093BC00222321F0CF
:101C9000809157048230E1F380914E048F3F61F0D0
:101CA00080914E04803251F080914E04803341F493
:101CB00083E007C081E005C080E003C082E001C08E
:101CC00084E00F910895613298F4209157042430F4
:101CD00089F460935004FC0188E794E0DC0102C0C1
:101CE00021912D932A2F281B2617D0F380E00895E9
:101CF00081E0089582E0089585ED8093BC00809195
:101D0000BC0084FDFCCF10925704089585EC8093AD
:101D1000BC001092570408951F920F920FB60F92B5
:101D200011242F933F934F935F936F937F938F93E0
:101D30009F93AF93BF93EF93FF938091B900887FF8
:101D4000803609F49FC058F5883209F45BC090F4DE
:101D5000803109F452C038F4882309F4F8C088307F
:101D600009F0F9C04AC0883109F44CC0803209F04A
:101D7000F2C05CC0803409F46BC038F4803309F4DD
:101D800055C0883309F0E7C054C0803509F454C009
:101D9000883509F462C0883409F0DDC0DAC08839BA
:101DA00009F4CBC0A8F4883709F46CC038F488363D
:101DB00009F468C0803709F0CEC064C0883809F4DF
:101DC000BCC0803909F464C0803809F0C4C060C068
:101DD000803B09F48AC038F4803A09F46BC0883A31
:101DE00009F0B9C082C0803C09F4ABC0883C09F45A
:101DF000A8C0883B09F0AFC08DC080915604809385
:101E0000BB0012C09091530480915204981788F53A
:101E100080915304E82FF0E0E85AFB4F90819093B3
:101E2000BB008F5F8093530485EC88C080934E0481
:101E300090C080934E0456C0809153049091BB0093
:101E4000E82FF0E0E85AFB4F90838F5F80935304B4
:101E500090915304809152046DC0809153049091ED
:101E6000BB00E82FF0E0E85AFB4F90838F5F809330
:101E700053048091550481116CC081E08093540417
:101E800084EA60C083E08093570410924F04CCCF63
:101E900080914F04803208F050C080914F0490919F
:101EA000BB00E82FF0E0E456FB4F90838F5F8093F8
:101EB0004F04BACF80914F04803230F4E0914F0448
:101EC000F0E0E456FB4F10820E947C0E60914F04BC
:101ED000E0919804F091990470E08CE994E0099500
:101EE00010924F040E94860E36C084E080935704FF
:101EF0001092510410925004E0919A04F0919B04C6
:101F0000099580915004811105C081E080935004AF
:101F10001092780480915104E82FF0E0E858FB4FCC
:101F200090819093BB008F5F8093510490915104F6
:101F300080915004981708F477CF85E88093BC000F
:101F40000AC085EC8093BC001092570404C0109224
:101F50004E040E947C0EFF91EF91BF91AF919F9133
:101F60008F917F916F915F914F913F912F910F9042
:101F70000FBE0F901F901895F8940C94DA12A2E0FF
:101F8000B0E0E5ECFFE00C94AD12FE0137966191F4
:101F90007191FA83E983AF018091BE049091BF04EF
:101FA0000E94D60F2296E2E00C94C912ACE0B0E099
:101FB000ECEDFFE00C949D127C016B018A01FC01A9
:101FC00017821682838181FFC7C188248394912C54
:101FD0008C0E9D1EF7019381F60193FD859193FF71
:101FE00081916F01882309F4B3C1853239F493FDDF
:101FF000859193FF81916F01853229F4B70190E0BB
:102000000E94C911E7CF712C312C20E02032A8F4B6
:102010008B3261F028F4803251F0833271F40BC0BE
:102020008D3239F0803349F4216028C02260246069
:1020300025C0286023C0206121C027FD27C0382F7C
:1020400030533A3078F426FF06C0FAE07F9E300D18
:102050001124732E13C08AE0389E300D1124332EC4
:1020600020620CC08E3221F426FD72C1206406C0AD
:102070008C3611F4206802C0883641F4F60193FDD5
:10208000859193FF81916F018111C0CF982F955455
:10209000933018F09052933028F40C5F1F4FFFE3F9
:1020A000F9830DC0833631F0833771F0833509F041
:1020B0005EC023C0F801808189830E5F1F4F6624B4
:1020C0006394712C540115C02801F2E04F0E511C8D
:1020D000F801A080B18026FF03C0672D70E002C028
:1020E0006FEF7FEFC5012C870E94BE113C0182017A
:1020F0002C856FE7262E222218C02801F2E04F0E11
:10210000511CF801A080B18026FF03C0672D70E04C
:1021100002C06FEF7FEFC5012C870E94B3113C0115
:102120002C8550E8252E222A820123FC1CC006C0E3
:10213000B70180E290E00E94C9113A94832D90E0AB
:1021400068167906A8F30FC0F50127FC859127FED4
:1021500081915F01B70190E00E94C91131103A945A
:10216000F1E06F1A71086114710471F7EEC08436E2
:1021700011F0893641F5F80127FF07C060817181B0
:10218000828193810C5F1F4F08C060817181882715
:1021900077FD8095982F0E5F1F4F4FE6642E6222C9
:1021A00097FF09C090958095709561957F4F8F4FEF
:1021B0009F4FF0E86F2A2AE030E0A4010E94F51159
:1021C000A82EA81844C0853731F43FEEB32EB222B2
:1021D0002AE030E024C099EFB92EB2228F36B9F050
:1021E00020F4883509F0B4C00DC0803721F088375D
:1021F00009F0AEC002C020E1B22AB4FE0BC084E0F8
:10220000B82A08C024FF09C0E6E0BE2A06C028E0BC
:1022100030E005C020E130E002C020E132E0F8010A
:10222000B7FE07C060817181828193810C5F1F4F6F
:1022300006C06081718180E090E00E5F1F4FA401B5
:102240000E94F511A82EA8188FE7682E6B2066FE55
:102250000BC0362D3E7FA71450F464FE0AC062FC0A
:1022600008C0362D3E7E05C0BA2C362D03C0BA2CD0
:1022700001C0B72C34FF0DC0FE01EA0DF11D8081B5
:10228000803311F4397E09C032FF06C0B394B39491
:1022900004C0832F867809F0B39433FD14C030FF57
:1022A0000FC07A2CB31460F4730C7B18B32C08C0E5
:1022B000B70180E290E03C870E94C911B3943C854D
:1022C000B314B0F304C0B31410F43B1801C0312CA4
:1022D00034FF12C0B70180E390E03C870E94C9112F
:1022E0003C8532FF1EC031FF03C088E590E002C08C
:1022F00088E790E0B7010CC0832F867891F031FD1C
:1023000002C080E201C08BE237FD8DE2B70190E0B0
:102310000E94C91106C0B70180E390E00E94C91174
:102320007A94A714C0F3AA94F401EA0DF11DB70141
:10233000808190E00E94C911A110F5CF06C0B701BD
:1023400080E290E00E94C9113A943110F8CF42CE59
:10235000F7012681378102C02FEF3FEFC9012C968C
:10236000E2E10C94B912FC0105906150704001103B
:10237000D8F7809590958E0F9F1F0895FC016150AE
:10238000704001900110D8F7809590958E0F9F1F97
:1023900008950F931F93CF93DF938C01EB018B81F3
:1023A00081FD03C00FEF1FEF1AC082FF0DC02E8109
:1023B0003F818C819D812817390764F4E881F98178
:1023C0000193F983E88306C0E885F985802F099594
:1023D000892B41F78E819F8101969F838E83C8014F
:1023E000DF91CF911F910F910895FA01AA2728300C
:1023F00051F1203181F1E8946F936E7F6E5F7F4FD2
:102400008F4F9F4FAF4FB1E03ED0B4E03CD0670F4D
:10241000781F891F9A1FA11D680F791F8A1F911DA0
:10242000A11D6A0F711D811D911DA11D20D009F4F0
:1024300068943F912AE0269F11243019305D319332
:10244000DEF6CF010895462F4770405D4193B3E01B
:102450000FD0C9F7F6CF462F4F70405D4A3318F0C2
:10246000495D31FD4052419302D0A9F7EACFB4E073
:10247000A6959795879577956795BA95C9F700972B
:102480006105710508959B01AC010A2E06945795CC
:10249000479537952795BA95C9F7620F731F841F23
:1024A000951FA01D0895AA1BBB1B51E107C0AA1FC1
:1024B000BB1FA617B70710F0A61BB70B881F991FE5
:1024C0005A95A9F780959095BC01CD01089597FB89
:1024D000072E16F4009407D077FD09D00E945312FE
:1024E00007FC05D03EF4909581959F4F0895709517
:1024F00061957F4F0895A1E21A2EAA1BBB1BFD0117
:102500000DC0AA1FBB1FEE1FFF1FA217B307E407D2
:10251000F50720F0A21BB30BE40BF50B661F771F2A
:10252000881F991F1A9469F760957095809590950A
:102530009B01AC01BD01CF0108952F923F924F92B4
:102540005F926F927F928F929F92AF92BF92CF9243
:10255000DF92EF92FF920F931F93CF93DF93CDB74C
:10256000DEB7CA1BDB0B0FB6F894DEBF0FBECDBFC4
:1025700009942A88398848885F846E847D848C8495
:102580009B84AA84B984C884DF80EE80FD800C819E
:102590001B81AA81B981CE0FD11D0FB6F894DEBF81
:1025A0000FBECDBFED010895EE0FFF1F0590F49112
:1025B000E02D099410E0CEEBD0E004C0FE010E94B3
:0E25C000D6122296C03CD107C9F7F894FFCF7F
:1025CE002C01000058020000B00400006009000059
:1025DE00C01200008025000040380000004B0000B3
:1025EE0080700000127A00000096000000E10000EA
:1025FE0000C20100040000000500010006000200F8
:10260E00030000127A0000093D0080841E00404243
:10261E000F0020A1070090D0030048E80100000041
:10262E000000C800CB00CE00D100D400D700DA00E5
:10263E005265636569766564205B25585D205B2570
:10264E00585D0A00526563656976656420256400ED
:10265E0000000000C800CB00CE00D100D400CD0495
:10266E00D0049504D304000000001F0C1F0C1F0C97
:10267E001F0C1F0C1F0C1F0C1F0C1F0C1F0C1F0CF4
:10268E001F0C1F0C1F0C1F0C1F0C1F0C000305062C
:10269E00090A0B000102030405060708090A0B0CC0
:1026AE000D00010203040541726475696E6F2055B9
:1026BE006E6F00000000006007490843083D08F6F1
:1026CE0007A0074C078E06B6084E08910600079B1A
:1026DE0006F306DB06C906940600000000600749F3
:1026EE000843083D08F607A0074C078E06B6084EAD
:1026FE0008910600079B06F306DB06C90694060042
:10270E000000006007490843083D08F607A0074C83
:10271E00078E06B6084E08910600079B06F306DBE9
:10272E0006C906940600000000540A200CEF091E8C
:10273E000A020A420A00000000330D050DD70CE014
:06274E000CF40C040D0068
:00000001FF
